:1000000045EF05F0F76A140FF66E000EF7220900AF
:10001000F55012002C0F0106F76A280FF66E000E3D
:10002000F7220900F55012003738392F3435365889
:100030003132332D23303D2B4552524F5200EA6A64
:10004000230EE96EEF500DE0020E016E006A002EE5
:10005000FED7012EFBD7970E006E002EFED7EF2E97
:10006000F3D7000C2438F00B006E0F0E8114001033
:10007000816E0000818600D000D08196000C8194B2
:10008000030E236EDCDF21A0819421B08184000067
:10009000000081962238236E0F0E231623C024F011
:1000A000E1DF22500F0B236E246EDCDF000C030E09
:1000B000936E81948196320E236EC1DF020E246E00
:1000C000D1DF050E236EBBDF0F6A0F5003080CE370
:1000D000036A0F5097DF106E216A226ED0DF050E83
:1000E000236EADDF0F2AF1D75CEF05F01C50D8B4BA
:1000F00071D0006E2050D8B46DD0002604E3810E7C
:10010000002668E204D07F0E005E64E363E01DC059
:1001100024F02150241A1D8E218E1F502302F4CF6B
:1001200026F01E502202F4CF03F0F3CF25F0230275
:10013000F3502626F4502522000E03221F502202DF
:10014000F3502626F4502522000E026A03220222D2
:100150001D502302F3502526F4500322000E0222E4
:100160001D502202F3500326F4500222000E016AB1
:1001700001221F502102F3502526F4500322000EC5
:10018000022201221E502102F3500326F4500222C3
:10019000000E01221D502102F3500226F4500122CC
:1001A000002A01BE05D02536033602360136000688
:1001B000000E25AE0AD0032A02220122015005E1D9
:1001C000025003E1035001E1002A24BE018E24AE57
:1001D000019E04D0006A016A026A036A000C1C5086
:1001E000B6081C6E036A1DC020F01D8ED8901D320B
:1001F0001E321F3203320232013200321C2EF6D779
:1002000020AE0BD0001E011E021E031E002AD8B411
:10021000012AD8B4022AD8B4032AB1EF01F0D8B227
:1002200003D0EA6A240EE96E006A016A026A036A70
:10023000246A256A266A276A23502210211020107A
:100240002CE0200E286ED8901C361D361E361F3628
:1002500024362536263627362350275C08E12250DF
:10026000265C05E12150255C02E12050245C0FE36F
:100270002050245E2150D8A0213C255E2250D8A0D9
:10028000223C265E2350D8A0233C275ED88000362F
:10029000013602360336282ED6D724C0EFFF25C0FC
:1002A000ECFF26C0ECFF27C0ECFF000C1E2C01D099
:1002B00003D0400E1F6E01D01F6A010E1D5C1F2669
:1002C0001F508009206E216A226ED9DE89EF01F06D
:1002D0001C500C0A05E0060A0BE0020A0FE013D0DE
:1002E000216A010E226ECBDE020E236EA8DE11D033
:1002F000010E1D6E020E1E6ED9D70BD0216A100E94
:10030000226EBDDE06D0010E216E1CC022F0B7DECB
:1003100000D0000CE950146E1350166E19E012C094
:100320001FF011C01EF010C01DF00FC01CF0236A9A
:10033000226A200E216E820E206ED8DE03C012F0DB
:1003400002C011F001C010F000C00FF0162EE7D768
:1003500012C01FF011C01EF010C01DF00FC01CF025
:100360003ED703C012F002C011F001C010F000C06F
:100370000FF012AE0DD01406148A0F1E101E111E9F
:10038000121E0F2AD8B4102AD8B4112AD8B4122AAF
:100390003B0E1B6E9A0E1A6ECA0E196E186A0A0E62
:1003A000166E1350D8B4142AD882EA6A0F0EE96E7A
:1003B00012C01FF011C01EF010C01DF00FC01CF0C5
:1003C0001BC023F01AC022F019C021F018C020F081
:1003D00026DF015000520FE11328165C0CE0145088
:1003E0000CE00F0B165C01E037E214BE35D014BCF4
:1003F00004D0200E2DD0200E141614AA0CD0149A5E
:100400001350D8A414060050146E2D0E1C6E60DF1D
:100410001450006E146A1350165C0AE10050146EFA
:100420002E0E1C6E55DF1450006E200E1416000E9A
:10043000300E14AA0DD0149A1350D8A414060050EC
:10044000146E2D0E1C6E44DF1450006E146A300EB4
:10045000002600C01CF03CDFD8921BC01FF01AC061
:100460001EF019C01DF018C01CF0236A226A216A10
:100470000A0E206ED4DE03C01BF002C01AF001C0C9
:1004800019F000C018F0162E8FD771EF05F0166A1C
:100490000F0E956E100E176E1A6A1A5003083DE380
:1004A000010E186E1B6A1B50030830E317C083FF50
:1004B000831E000083500F0B196E1950F009FF0ABC
:1004C000196E1850195C1EE1140E236EB8DD1A5017
:1004D000040DF3501D6A1C6E036A1B501C24016E30
:1004E0001D500322015098DD166E1850195C09E169
:1004F000040083500F0B196E1950F009FF0A196E92
:10050000F4D704D0D89018361B2ACDD7165201E064
:1005100004D0D89017361A2AC0D716C001F0F2EFCF
:1005200003F08E0E006E1BC001F01AC002F0036AC9
:10053000015209E102C001F0026A080E005E015298
:1005400002E1006A08D0D89001BE04D0023601361C
:100550000006F9D7019E1DEF04F0800ED8B21F1AD5
:10056000246A256A1BC023F01F50231A1A50D8B4DE
:10057000DCD0226E006E1E50D8B4E0D0225ED8B41B
:1005800081D03DE31FC028F0288E20C027F021C075
:1005900026F0256AD8902832273226322532222E9C
:1005A000F8D723AE03D02480DDD024902290248875
:1005B000EA6A1D0EE96EE9D0249823BE0AD022A073
:1005C00013D02832273226322532002AD8B4C5D09B
:1005D0000BD028BE0CD0D8902536263627362836A4
:1005E0000006D8B4BAD0F5D7248C6BD0249C1BC09D
:1005F00023F01BAE02D0288EA9D0289EA7D01EC003
:1006000022F01EC000F01A50225E1BC028F0288E77
:100610001CC027F01DC026F0256AD890283227324A
:1006200026322532222EF8D723AE03D024829AD048
:1006300024922290248AEA6A210EE96EA6D0249A96
:1006400023BE0AD022A013D02832273226322532E8
:10065000002AD8B482D00BD028BE0CD0D890253632
:100660002636273628360006D8B477D0F5D7248E1C
:1006700028D0249E1FC023F01FAE02D0288E66D043
:10068000289E64D01FC028F0288E20C027F021C0EB
:1006900026F023AE04D0289E248464D02494256AB6
:1006A0002290EA6A1D0EE96E70D023BE1CD01BC0DA
:1006B00023F022A006D02832273226322532002A03
:1006C0004CE025AE0BD0262A09E1272A07E1282A8B
:1006D00005E1283227322632002A3FE024BC86D7A3
:1006E00024BEC7D71CD0800E281A28AE04D03AD01A
:1006F0001FC023F00AD01BC023F0285206E1275266
:1007000004E1265202E1006A21D028BE08D0D89028
:100710002536263627362836002EF7D71ED023AEAC
:1007200002D0288E13D0289E11D01EC000F01FC00A
:1007300028F020C027F021C026F008D01AC000F011
:100740001BC028F01CC027F01DC026F028C001F0F7
:1007500027C002F026C003F034D0006A016A026AA2
:10076000036A2FD0256A261E271E281E251E252A2D
:1007700005E1262A03E1272A01E1282A24B015D71A
:1007800024B256D724B48AD7B3D7EF50262605E330
:10079000272A03E1282AD8B42280ED52EF502726D9
:1007A00003E3282AD8B42280ED52EF50EFBE01D0E7
:1007B000800A2826D8B0228024B8FED624BA3FD793
:1007C00074D7000C216A010E226E59DC146A136A78
:1007D000126A116A010E156E152C52D0046A045269
:1007E00004E155D601C004F0FAD7216A226A47DC39
:1007F00004C01CF06DDD04502F083AE204503908A3
:1008000037E314C01FF013C01EF012C01DF011C05A
:100810001CF0236A226A200E216E820E206E66DC96
:1008200000C016F001C017F002C018F003C019F0A4
:10083000300E045C1B6A1A6E74D6D89219C01DF073
:1008400018C01CF017C01BF016C01AF003C021F02E
:1008500002C020F001C01FF000C01EF07EDE03C009
:1008600014F002C013F001C012F000C011F007D064
:10087000156A0FC0E9FF10C0EAFF04C0EFFFACD754
:1008800011C000F012C001F013C002F014C003F058
:1008900096EF05F010C017F01450171A17AE05D0D8
:1008A000D894D89010BED8802FD010C017F013C0A5
:1008B00018F00F50185E06E017AE26D0D850010A87
:1008C000D86E22D014C018F01050185E06E017AE93
:1008D0001BD0D850010AD86E17D015C018F011508F
:1008E000185E06E017AE10D0D850010AD86E0CD0B2
:1008F00016C018F01250185E06E017AE05D0D8509A
:10090000010AD86E01D0D89005EF06F00900F55223
:100910000CE0F6CF0FF0F7CF10F0F5CF1CF0D8DCDD
:100920000FC0F6FF10C0F7FFF1D70BEF06F00F5026
:10093000D8B4A5D01B6E1350D8B4A1D01B5E05E36C
:100940007F0E1B26D8B09BD006D0810E1B5ED8A090
:1009500096D0D8B494D01BC000F0016A026A036A32
:100960001A6A10C019F0198E11C018F012C017F0D1
:10097000190E1B6E1650175E0DE2010E185E0AE28C
:10098000195E08E21A5E06E21A2A192A182A165077
:10099000172628D01550185E12E2010E195E0FE2DC
:1009A0001A5E0DE21A2A192A155018261650172613
:1009B00019E3182A17E1192A15E11A2A13D014503D
:1009C0008009195E0EE2010E1A5E0BE21A2A14501B
:1009D0008009192615501826E9E3192AE7E11A2A91
:1009E000E5D703801B2E01D00BD0D89017361836D0
:1009F00019361A36D8900336023601361C36BAD765
:100A00001CA006D0D8900132023203321C3202D030
:100A1000000635E01CBE1ED0D890173618361936A1
:100A20001A361650175E07E2010E185E04E2195ED0
:100A300002E21A5E1AE31550185E05E2010E195E15
:100A400002E21A5E12E314508009195E03E2010EFD
:100A50001A5E0BE3032A09E1022A07E1012A05E1F4
:100A6000002A0DE001320232033210C01BF0145094
:100A70001B1A1BAE02D0018E06D0019E04D0006A64
:100A8000016A026A036A1DEF06F0F86AD09EEA6AFC
:100A9000E96AC150C00B0F09C16E070EB46E086A37
:100AA000076A066A056A0C6A0B6A0A6A096A2B0EEB
:100AB0000D6E0E6E57EF00F00D503D081EE1216ADD
:100AC000010E226E3FEC00F0890EE96E0CC012F0B0
:100AD0000BC011F00AC010F009C00FF0020E136E27
:100AE00019D4040E0F6EFA0E236E1FEC00F00F2EB9
:100AF000FAD7086A076A066A056A0D50230810E1EA
:100B0000086A076A066A056A0C6A0B6A0A6A096A51
:100B10002B0E0D6E0E6E216A010E226E3FEC00F060
:100B20000DC00EF0106A0D0E0F6E4CD603C008F00B
:100B300002C007F001C006F000C005F00E502B08FF
:100B40001AE1D8920CC01DF00BC01CF00AC01BF0BB
:100B500009C01AF008C021F007C020F006C01FF03D
:100B600005C01EF0FADC03C00CF002C00BF001C09F
:100B70000AF000C009F00E502D081AE1D8820CC00E
:100B80001DF00BC01CF00AC01BF009C01AF008C011
:100B900021F007C020F006C01FF005C01EF0DDDC0C
:100BA00003C00CF002C00BF001C00AF000C009F055
:100BB0000E5058081AE10CC01FF00BC01EF00AC0FE
:100BC0001DF009C01CF008C023F007C022F006C0C9
:100BD00021F005C020F076EC00F003C00CF002C05C
:100BE0000BF001C00AF000C009F00E502F082DE1F3
:100BF00008C012F007C011F006C010F005C00FF0D9
:100C0000166A156A146A136A45D606E1380EF66E3E
:100C1000000EF76E7BD619D00CC012F00BC011F08D
:100C20000AC010F009C00FF008C016F007C015F098
:100C300006C014F005C013F07AD603C00CF002C051
:0E0C40000BF001C00AF000C009F036D7030027
:020000040030CA
:0E00000000C21E1E008781000FC00FE00F40DF
:00000001FF
;PIC18F4520
;CRC=6FD8  CREATED="16-nov-12 21:18"
